:100CA600542ED527E1269027E4270130AB00A70173
:100CB600AC01AE012830A9002530AA004F30162716
:100CC6004B3016270D3016270A3016270030E72737
:100CD600A8000130E727D226A20064302802031CB0
:100CE600792E2E187B2E2208A6007B2E6430A600B5
:100CF600AB266327AC0A1E302C02031DA72EAC01BF
:100D0600543016273A3016272908A2001C274230ED
:100D160016273A30162731301627303016272A087C
:100D2600A2005427203016274C3016273A301627B3
:100D36002808A2003A2720301627503016273A30C6
:100D460016272708A2001C27EC260530F727692E50
:100D56002608270203190800031CC12E0A30B0001A
:100D6600AB0D2B1A01302B1AAB002B080F3986005E
:100D76000330F727B00BB32EA70308000A30B000E4
:100D86000310AB0C031808300318AB002B080F39FF
:100D960086000330F727B00BC32EA70A0800AF0062
:100DA600A2010530AF02031CDB2E0230A207D42EAF
:100DB60064302202031864342208080083160713DD
:100DC60087171930990024309800831290309800C4
:100DD600080098180E2F8C1E08001A08AD002D0862
:100DE600413C0319FB2E2D08433C0319092F08002B
:100DF600AE014130162755301627543016274F308E
:100E060016270D3016270A30162708001227A600C7
:100E16000130AE00080018120000181608008C1EDB
:100E2600122F1A080800AD000C1E172F2D08990066
:100E36000800A301A40164302202031C252FA2008E
:100E4600A30A1E2F0A302202031C2C2FA200A40A7A
:100E5600252F2308303E16272408303E1627220861
:100E6600303E16270D3016270A3016270800A30134
:100E7600A40164302202031C432FA200A30A3C2FC4
:100E86000A302202031C4A2FA200A40A432F230879
:100E9600303E16272408303E16272208303E1627F5
:100EA6000800A4010A302202031C5C2FA200A40A37
:100EB600552F2408303E16272208303E16270800F4
:100EC60080309B272B30A1272908A200AC27DF30D2
:100ED600A1274330A1272030A1273130A127303068
:100EE600A1272A08A200C6276830A1275030A127CB
:100EF6006130A127C0309B272808A200AC274C30C0
:100F0600A1277530A1277830A1272030A1272708EF
:100F1600A200AC272530A12708001430F727383067
:100F26009B270C309B2701309B270530F7270800AD
:100F360088000910A7270230F7270800880009143F
:100F4600A7270130F7270800891400000000891040
:100F56000800A301A40164302202031CB52FA200DD
:100F6600A30AAE2F0A302202031CBC2FA200A40A39
:100F7600B52F2308303EA1272408303EA12722089A
:100F8600303EA1270800A4010A302202031CCE2FFE
:100F9600A200A40AC72F2408303EA1272208303E0B
:100FA600A127080083168601880189010330850080
:100FB6008030870004309F008312860188018901F2
:100FC600080041309F0008000739A200A20DA20DBB
:100FD600A20DC7309F0522089F040230F7271F1570
:100FE6001F19F32F1E080800A100FA30A000000008
:0A0FF600A00BFA2FA10BF82F080042
:02400E00313F40
:00000001FF
