:020000040000FA
:020000001129C4
:040002000034003492
:02000800F529D8
:1002000082073F3406345B344F3466346D347D34BA
:1002100007347F346F3400343934713477347934AF
:100220006D348316880185010514F0308600813015
:1002300087008E309F008113843081002030990028
:100240009816181218118C168312981718168130E8
:100250009F00850188018701A001A101A201A301DE
:10026000A601A701A501BE011930B8000030B900F0
:100270008B160B178B1709233E189C22261CA321D3
:100280006E220D3A0319532926183C292508003CF3
:100290000319CF292508013C0319DD292508023C53
:1002A0000319E9293C292614A7010D30A0000A30C2
:1002B000A100A200A30063225322AB00A00063228E
:1002C0005322B100A1002B08AD000310AD0D0310A7
:1002D000AD0D2D08AB070310AB0D3108AB07632242
:1002E0006E220E3A031D7029271463225322AC009C
:1002F000A20063226E220F3A031D7A2963220A307C
:100300002B02031C932933302B02031893292B084B
:10031000B8002C08B9000F30A0000A30A100A200DC
:10032000A30003239A290E30A0000A30A100A200E6
:10033000A3000323632226102710A501A801A90109
:10034000A321D1213C291F151F19A42983160313AA
:100350001E088312BF00831203131E088312C000FD
:100360000310C00CBF0C3F08BA00BB010318B92929
:10037000BB290530BB0038083A02031CC229031907
:10038000CB29C62987160711BC010800871207155B
:100390003230BC00080087120711BC010800D121CF
:1003A0003C293808B100E7223308A0003408A10036
:1003B0003908A2000A30A30008003A08B100E72279
:1003C0003308A0003408A1003B08A2000B30A300B2
:1003D0003C293C08B100E7223208A0003308A10004
:1003E0003408A2000C30A3003C29B500030EB6006F
:1003F0000A08B7008C1A472A0B1D4C2A0B118501DD
:1004000088012618152AA80A0319A90A2908013CF7
:10041000031D152A2808F03C031D152AA801A9016F
:10042000A50A2508033C0319A50102308A00240807
:1004300082071D2A252A372A3F2A01308A002008F0
:10044000002188000514A40A4C2A01308A002108E2
:10045000002188002618322A2508023C0319342A74
:100460008817342A271888178514A40A4C2A0130C3
:100470008A002208002188000515A40A4C2A0130B0
:100480008A002308002188008515A4014C2A1A0837
:10049000BD003E148C124C2A37088A00360E8300A9
:1004A000B50E350E09006E22FF3A031D532A6E2247
:1004B000AA00FF3A0319572A2A08093C031C572AA5
:1004C000FA222A080800FA226E22FF3A031D642A43
:1004D000FA226E22FF3A031D642A08008601FE30CC
:1004E00086000F23061E0134861E0234061F0334C5
:1004F000861F0D34FD3086000F23061E0434861E31
:100500000534061F0634861F0B34FB3086000F238C
:10051000061E0734861E0834061F0934861F0C3455
:10052000F73086000F23061E0E34861E0034061F89
:100530000F34861F0D34FF343D08B100B11BB52ABE
:10054000313031020319B82A323031020319BB2A83
:10055000333031020319BE2A343031020319C12A63
:10056000353031020319C42ACF2A311FC72ACB2ABA
:100570003908D122CF2A3808D122CF2A3B08D122EC
:10058000CF2A3A08D122CF2A3C08D122CF2A3108DB
:100590003F39B900CF2A31083F39B800CF2A3E1081
:1005A0000800B100E7223208303EDF223308303E37
:1005B000DF223408303EDF220D30DF220800C10088
:1005C0008316981CE02A8312410899000800B201A2
:1005D000B301B4013108B40064303402031CF32ABF
:1005E000B400B20AEC2A0A303402031C0800B4003A
:1005F000B30AF32AC830AE00FA30AF00AF0BFE2AC0
:10060000AE0BFC2A08000F30B000FA22B00B052B0D
:1006100008000A30B000FA22B00B0B2B0800323071
:08062000AF00AF0B112B080025
:02400E00723FFF
:00000001FF
